:020000040800F2
:100000000028002051170008E1160008E716000834
:10001000ED160008F3160008F916000800000000AD
:10002000000000000000000000000000FF160008B3
:100030000B1700080000000017170008231700081E
:1000400099170008991700089917000899170008D0
:1000500099170008991700089917000899170008C0
:1000600099170008991700089917000899170008B0
:1000700099170008991700089917000899170008A0
:100080009917000899170008991700089917000890
:100090009917000899170008991700089917000880
:1000A0009917000899170008991700089917000870
:1000B0003117000899170008000000009917000880
:1000C00099170008000000000000000099170008C0
:1000D00000000000991700089917000800000000B0
:1000E00099170008991700089917000800000000E8
:1000F0000000000000000000000000000000000000
:0C01000000000000000000005FF808F1A3
:10010C0010B5054C237833B9044B13B10448AFF345
:10011C0000800123237010BD680000200000000047
:10012C00E02D000808B5034B1BB103490348AFF39E
:10013C00008008BD000000006C000020E02D0008CD
:10014C0080B483B000AF7860094A7B6852F82330E2
:10015C00002B06D0064A7B68002142F823100123AD
:10016C0000E0002318460C37BD4680BC704700BF2A
:10017C008400002080B483B000AF7860044A7B68B0
:10018C00012142F8231000BF0C37BD4680BC7047DC
:10019C008400002080B582B000AF00237B606DE04E
:1001AC003A4A7B6852F8232039497B6841F823206E
:1001BC00384A7B6852F8232034497B6841F8232065
:1001CC00354A7B6852F8232034497B6831F8133068
:1001DC001946104601F0C6FD034619462D4A7B68A8
:1001EC0042F823102A4A7B6852F8232027497B685F
:1001FC0051F823309A423ED1244A7B6852F823208E
:10020C0024497B6851F823309A4234D1244A7B68C4
:10021C0052F823201F497B6851F823309A4216D09C
:10022C001C4A7B6852F823201D497B6841F8232027
:10023C00184A7B6852F82330002B1CD17868FFF7E2
:10024C0099FF184A7B68C82142F8231013E0154A1D
:10025C007B6852F823305A1E12497B6841F82320E0
:10026C00104A7B6852F82330002B04D10C4A7B686F
:10027C00012142F823107B6801337B607B68022BE1
:10028C008EDD00BF00BF0837BD4680BD0C000020CE
:10029C0000000020180000203C0000204800002036
:1002AC00240000203000002080B500AFAB4B1B6851
:1002BC00013B042B00F2CE8101A252F823F000BFC7
:1002CC00E102000813030008D7030008A504000886
:1002DC0095050008A14B02221A6000F0B7FB002024
:1002EC0000F000FF4FF47A7001F0D8F89C4B1B68BB
:1002FC004FF47A7202FB03F3184601F0EBF864201A
:10030C0001F020F9AFE100F0D7FB964B1B68002BF6
:10031C0018D04FF47A7001F0C1F8934B1B68002B86
:10032C0004DD914B1B68013B8F4A13608F4B1B689C
:10033C00002B04DD8D4B1B68013B8C4A13600020A5
:10034C0000F0D0FE8A4B1B68012B13D1894B1B6824
:10035C00013B864A1360814B03221A60854B1B6854
:10036C004FF47A7202FB03F3184601F0B3F8002045
:10037C0000F0B8FE804B1B68012B11D1642001F0FA
:10038C00E1F87E4B1B68032B02DD7C4B00221A60CC
:10039C007A4B1B685A1C79490A60184600F012FE09
:1003AC000020FFF7CDFE0346002B00F055816B4B70
:1003BC000A221A60FA2001F0A9F8714B1B68714AE5
:1003CC001360012000F08EFE46E100F099FB654BB6
:1003DC001B68002B18D04FF47A7001F05FF8624B59
:1003EC001B68002B04DD604B1B68013B5E4A1360ED
:1003FC005E4B1B68002B04DD5C4B1B68013B5B4AAE
:10040C001360002000F06EFE594B1B68012B18D1B5
:10041C00534B1B68013B544A1360594B1B68013BFF
:10042C00524A13604D4B04221A604D4B1B684FF41B
:10043C007A7202FB03F3184601F04CF8002000F02E
:10044C0051FE4D4B1B68012B11D1642001F07AF841
:10045C004A4B1B68032B02DD484B00221A60474BAA
:10046C001B685A1C45490A60184600F0ABFD002079
:10047C00FFF766FE0346002B00F0F080374B0A2294
:10048C001A60FA2001F042F83D4B1B683D4A13609C
:10049C00012000F027FEE1E000F056FB314B1B6819
:1004AC00002B18D04FF47A7000F0F8FF2E4B1B681D
:1004BC00002B04DD2C4B1B68013B2B4A13602B4B90
:1004CC001B68002B04DD294B1B68013B274A13607A
:1004DC00002000F007FE264B1B68012B13D1254B87
:1004EC001B68013B204A13601C4B05221A60214BF0
:1004FC001B684FF47A7202FB03F3184600F0EAFF14
:10050C00002000F0EFFD1C4B1B68012B11D1642067
:10051C0001F018F8194B1B68032B02DD174B002256
:10052C001A60164B1B685A1C14490A60184600F0D6
:10053C0049FD0020FFF704FE0346002B00F09080DD
:10054C00064B0A221A60FA2000F0E0FF0C4B1B68E5
:10055C000C4A1360012000F0C5FD81E0B0000020C2
:10056C005800002010010020A8000020AC00002042
:10057C00FC0000205400002000010020900000200E
:10058C0050000020A400002000F002FB374B1B6839
:10059C00002B18D04FF47A7000F080FF344B1B689E
:1005AC00002B04DD324B1B68013B314A1360314B8D
:1005BC001B68002B04DD2F4B1B68013B2D4A13607D
:1005CC00002000F08FFD2C4B1B68012B18D12B4BFE
:1005DC001B68013B264A1360294B1B68013B254ACB
:1005EC001360284B02221A60254B1B684FF47A7259
:1005FC0002FB03F3184600F06DFF002000F072FDC3
:10060C00214B1B68012B11D1642000F09BFF1F4B69
:10061C001B68032B02DD1D4B00221A601B4B1B6851
:10062C005A1C1A490A60184600F0CCFC0020FFF74F
:10063C0087FD0346002B15D0124B0A221A60FA20B4
:10064C0000F064FF0D4B1B68114A1360012000F091
:10065C0049FD07E000BF06E000BF04E000BF02E078
:10066C0000BF00E000BF00BF80BD00BF1001002034
:10067C00A8000020AC000020FC000020500000204E
:10068C0058000020B0000020000100209000002045
:10069C00A400002080B582B000AFA14B1B680C2BCE
:1006AC0000F010810C2B00F3B5810A2B03D00B2B1F
:1006BC0000F08580AEE10020FFF742FD0346002BE1
:1006CC0009D0974B0B221A60964B1B68964A136005
:1006DC00022000F007FD0120FFF732FD0346002B3E
:1006EC0013D0914B1B68012B03DD8F4B1B68622BC6
:1006FC0003DD8D4B02221A6004E08B4B1B68013327
:10070C00894A1360012000F0EDFC0220FFF718FD70
:10071C000346002B2AD0844B1B68844A1360814B00
:10072C001A68834B1B681A44804B1B689A4207DC7F
:10073C007E4B1A687B4B1B68D31A7D4A136015E0FD
:10074C007A4B1B68DA0F13445B107B60774B1B688A
:10075C00002B03F00103B8BF5B423B60714A7B681E
:10076C0013607A683B681344714A1360714B1B68C1
:10077C00002B03D04FF47A7000F090FE6E4B1B6888
:10078C00002B04D0FA2000F0C1FE00F025FA6B4BD0
:10079C001B68002B00F04081642000F0D3FE684BF6
:1007AC001B68032B02DD664B00221A60644B1B682E
:1007BC005A1C63490A60184600F004FC2CE1002026
:1007CC00FFF7BEFC0346002B09D0554B0C221A60D8
:1007DC00574B1B68544A1360032000F083FC012024
:1007EC00FFF7AEFC0346002B0FD04F4B1B68612B61
:1007FC0003DD4D4B01221A6004E04B4B1B680133A7
:10080C00494A1360022000F06DFC0220FFF798FCAF
:10081C000346002B2DD0444B1B68424A1360414BBE
:10082C001A68434B1B681A44404B1B689A4207DCFE
:10083C003E4B1A683B4B1B68D31A3D4A136018E0B9
:10084C00384B1A683A4B1B681344632B07DC354B47
:10085C001A68374B1B681344344A136009E0334B56
:10086C0063221A60314B1A682E4B1B68D31A304A1C
:10087C001360304B1B68002B03D04FF47A7000F0E0
:10088C000DFE2D4B1B68002B04D0FA2000F03EFE11
:10089C0000F0C4F9294B1B68002B00F0BF806420CA
:1008AC0000F050FE264B1B68032B02DD244B00226C
:1008BC001A60234B1B685A1C21490A60184600F029
:1008CC0081FBABE00020FFF73BFC0346002B18D06C
:1008DC00134B02221A60164B1B684FF47A7202FB00
:1008EC0003F3184600F0F6FD104B1B68013B154A4C
:1008FC0013600F4B1B68013B134A1360002000F080
:10090C00F1FB0120FFF71CFC0346002B26D0064B05
:10091C001B68612B1ADD044B01221A601BE000BF1F
:10092C00B000002054000020A40000205000002043
:10093C0058000020100100200801002000010020B8
:10094C0090000020A8000020AC000020374B1B6852
:10095C000133364A1360032000F0C4FB0220FFF77A
:10096C00EFFB0346002B2DD0304B1B68304A136035
:10097C002F4B1A682F4B1B681A442F4B1B689A423B
:10098C0007DC2D4B1A682A4B1B68D31A294A1360B3
:10099C0018E0284B1A68264B1B681344632B07DCA2
:1009AC00234B1A68234B1B681344234A136009E03A
:1009BC00214B63221A60204B1A681D4B1B68D31AFB
:1009CC001C4A13601D4B1B68002B03D04FF47A702C
:1009DC0000F064FD1A4B1B68002B04D0FA2000F0C9
:1009EC0095FD00F03DF9174B1B68002B18D06420C7
:1009FC0000F0A8FD144B1B68032B02DD124B0022E8
:100A0C001A60114B1B685A1C0F490A60184600F0FB
:100A1C00D9FA05E000BF04E000BF02E000BF00E02F
:100A2C0000BF00BF0837BD4680BD00BFA40000203A
:100A3C00580000205400002050000020100100201D
:100A4C0008010020000100209000002080B500AFBC
:100A5C0001220221134801F09CF9012204211148C2
:100A6C0001F097F9012208210E4801F092F90122B8
:100A7C0010210C4801F08DF901222021094801F0C8
:100A8C0088F901224021074801F083F9064B1B68C5
:100A9C00013B064A1360064B1B68013B054A136079
:100AAC0000BF80BD0008014050000020A8000020BD
:100ABC0058000020AC00002080B500AF00220221BD
:100ACC000E4801F066F9012204210C4801F061F98D
:100ADC0001220821094801F05CF901221021074884
:100AEC0001F057F901222021044801F052F90022AB
:100AFC004021024801F04DF900BF80BD00080140C3
:100B0C0080B500AF002202210E4801F042F901220B
:100B1C0004210C4801F03DF901220821094801F09B
:100B2C0038F901221021074801F033F90022202165
:100B3C00044801F02EF901224021024801F029F964
:100B4C0000BF80BD0008014080B500AF012202212A
:100B5C000E4801F01EF9012204210C4801F019F98C
:100B6C0000220821094801F014F90022102107483D
:100B7C0001F00FF901222021044801F00AF90122A9
:100B8C004021024801F005F900BF80BD000801407A
:100B9C0080B500AF012202210E4801F0FAF80022C4
:100BAC0004210C4801F0F5F801220821094801F054
:100BBC00F0F800221021074801F0EBF80122202167
:100BCC00044801F0E6F801224021024801F0E1F866
:100BDC0000BF80BD0008014080B500AF02210E4867
:100BEC0001F0EFF8012204210B4801F0D2F80122A8
:100BFC000821094801F0CDF81021074801F0E1F86F
:100C0C0001222021044801F0C4F8012240210248AD
:100C1C0001F0BFF800BF80BD0008014080B500AFF7
:100C2C00012202210D4801F0B4F804210B4801F017
:100C3C00C8F801220821094801F0ABF80122102163
:100C4C00064801F0A6F82021044801F0BAF8012268
:100C5C004021024801F09DF800BF80BD0008014012
:100C6C0080B500AF012202210D4801F092F801225B
:100C7C0004210B4801F08DF80821094801F0A1F876
:100C8C0001221021064801F084F801222021044899
:100C9C0001F07FF84021024801F093F800BF80BDBD
:100CAC000008014080B582B000AF78607B68092BEA
:100CBC0000F2808101A252F823F000BFF10C000871
:100CCC00390D0008810D0008C90D0008110E00082F
:100CDC00590E0008A10E0008E90E0008310F00089B
:100CEC00790F000800220121B54801F052F80022CA
:100CFC000221B34801F04DF800220421B04801F064
:100D0C0048F800220821AE4801F043F800221021D7
:100D1C00AB4801F03EF800222021A94801F039F837
:100D2C0001224021A64801F034F844E101220121BE
:100D3C00A34801F02EF800220221A14801F029F865
:100D4C00002204219E4801F024F8012208219C482D
:100D5C0001F01FF801221021994801F01AF8012224
:100D6C002021974801F015F801224021944801F008
:100D7C0010F820E100220121914801F00AF800222C
:100D8C0002218F4801F005F8012204218C4801F062
:100D9C0000F8002208218A4800F0FBFF00221021F5
:100DAC00874800F0F6FF01222021854800F0F1FF72
:100DBC0000224021824800F0ECFFFCE000220121DF
:100DCC007F4800F0E6FF002202217D4800F0E1FFA1
:100DDC00002204217A4800F0DCFF00220821784828
:100DEC0000F0D7FF01221021754800F0D2FF01223C
:100DFC002021734800F0CDFF00224021704800F004
:100E0C00C8FFD8E0012201216D4800F0C2FF00228A
:100E1C0002216B4800F0BDFF00220421684800F05D
:100E2C00B8FF01220821664800F0B3FF012210210F
:100E3C00634800F0AEFF00222021614800F0A9FFBA
:100E4C00002240215E4800F0A4FFB4E00022012102
:100E5C005B4800F09EFF01220221594800F099FFE7
:100E6C0000220421564800F094FF00220821544827
:100E7C0000F08FFF01221021514800F08AFF002260
:100E8C0020214F4800F085FF002240214C4800F003
:100E9C0080FF90E000220121494800F07AFF0122F6
:100EAC000221474800F075FF00220421444800F05D
:100EBC0070FF00220821424800F06BFF0022102135
:100ECC003F4800F066FF002220213D4800F061FF02
:100EDC00002240213A4800F05CFF6CE00022012126
:100EEC00374800F056FF00220221354800F051FF30
:100EFC0000220421324800F04CFF01220821304826
:100F0C0000F047FF012210212D4800F042FF012282
:100F1C0020212B4800F03DFF01224021284800F001
:100F2C0038FF48E000220121254800F032FF002262
:100F3C000221234800F02DFF00220421204800F05C
:100F4C0028FF002208211E4800F023FF0022102158
:100F5C001B4800F01EFF00222021194800F019FF49
:100F6C0000224021164800F014FF24E00022012149
:100F7C00134800F00EFF00220221114800F009FF77
:100F8C00002204210E4800F004FF002208210C4826
:100F9C0000F0FFFE01221021094800F0FAFE0022A9
:100FAC002021074800F0F5FE00224021044800F003
:100FBC00F0FE00E000BF00BF0837BD4680BD00BF9B
:100FCC00000C014080B582B000AF78607B68032BC9
:100FDC007ED801A252F823F0F50F00082F1000085C
:100FEC0069100008A3100008002280213B4800F083
:100FFC00D0FE01224FF48071384800F0CAFE012265
:10100C004FF40071354800F0C4FE01224FF48061AA
:10101C00324800F0BEFE324B1B681846FFF742FE0A
:10102C0057E0012280212D4800F0B3FE00224FF43E
:10103C0080712A4800F0ADFE01224FF40071274860
:10104C0000F0A7FE01224FF48061244800F0A1FEBD
:10105C00234B5B681846FFF725FE3AE001228021FE
:10106C001E4800F096FE01224FF480711B4800F0E0
:10107C0090FE00224FF40071184800F08AFE012205
:10108C004FF48061154800F084FE154B9B681846A0
:10109C00FFF708FE1DE001228021104800F079FEC8
:1010AC0001224FF480710D4800F073FE01224FF4C1
:1010BC0000710A4800F06DFE00224FF48061074871
:1010CC0000F067FE064BDB681846FFF7EBFD00E00F
:1010DC0000BF00BF0837BD4680BD00BF00080140FF
:1010EC009400002080B483B000AF78607B68032B41
:1010FC0000F29F8001A252F823F000BF19110008E2
:10110C007F110008BF110008FF1100084C4B1B6831
:10111C004C4A82FB03129210DB17D31A4A4A136013
:10112C00474B1968474B83FB01239A10CB17D21AF4
:10113C0013469B0013445B00CA1A434B5A60434B43
:10114C001B68404A82FB03129210DB17D31A3E4AEB
:10115C0093603E4B19683B4B83FB01239A10CB17D2
:10116C00D21A13469B0013445B00CA1A364BDA6042
:10117C0060E0354B00221A60334B02225A60344B2C
:10118C001B68304A82FB03129210DB17D31A2E4ACB
:10119C0093602F4B19682B4B83FB01239A10CB17B1
:1011AC00D21A13469B0013445B00CA1A264BDA6012
:1011BC0040E0254B00221A60234B03225A60244B3B
:1011CC001B68204A82FB03129210DB17D31A1E4AAB
:1011DC0093601F4B19681B4B83FB01239A10CB1791
:1011EC00D21A13469B0013445B00CA1A164BDA60E2
:1011FC0020E0154B00221A60134B04225A60144B4A
:10120C001B68104A82FB03129210DB17D31A0E4A8A
:10121C0093600F4B19680B4B83FB01239A10CB1770
:10122C00D21A13469B0013445B00CA1A064BDA60B1
:10123C0000E000BF00BF0C37BD4680BC704700BF4C
:10124C00A80000206766666694000020AC000020B1
:10125C00A400002080B500AF00F09AFA00F014F85A
:10126C0000F09AF800F04CF8054801F0EFF9054B46
:10127C0001221A60FFF718F8FFF70CFAFAE700BF23
:10128C00B4000020B000002080B590B000AF07F192
:10129C00180328220021184601F094FD3B1D002262
:1012AC001A605A609A60DA601A610223BB610123EA
:1012BC00BB621023FB6200237B6307F11803184603
:1012CC0000F098FD0346002B01D000F0E1F80F234D
:1012DC007B600023BB600023FB6000233B61002389
:1012EC007B613B1D0021184601F004F80346002BDE
:1012FC0001D000F0CDF800BF4037BD4680BD0000E6
:10130C0080B586B000AF07F1080300221A605A605E
:10131C009A60DA603B4600221A605A601D4B4FF00F
:10132C0080421A601B4B41F63F725A60194B0022E7
:10133C009A60184B0922DA60164B00221A61154B81
:10134C0000229A61134801F031F90346002B01D0B9
:10135C0000F09EF84FF48053BB6007F10803194668
:10136C000C4801F0C7FA0346002B01D000F090F8AE
:10137C0000233B6000237B603B461946054801F087
:10138C0093FC0346002B01D000F082F800BF183705
:10139C00BD4680BDB400002080B588B000AF07F119
:1013AC00100300221A605A609A60DA602E4B9B6917
:1013BC002D4A43F0100393612B4B9B6903F01003F0
:1013CC00FB60FB68284B9B69274A43F0040393613D
:1013DC00254B9B6903F00403BB60BB68224B9B69E4
:1013EC00214A43F0080393611F4B9B6903F00803E8
:1013FC007B607B68002240F2FE711C4800F0C9FC47
:10140C0000227F211A4800F0C4FC4FF460433B617A
:10141C0000237B610123BB6107F1100319461548BA
:10142C0000F026FB40F2FE733B6101237B6100233D
:10143C00BB610223FB6107F1100319460B4800F056
:10144C0017FB7F233B6101237B610023BB610223DC
:10145C00FB6107F110031946054800F009FB00BFBA
:10146C002037BD4680BD00BF00100240000801407F
:10147C00000C01400010014080B582B000AF7860D4
:10148C0000F07CF8FEF786FE00BF0837BD4680BD35
:10149C0080B400AF72B600BFFEE7000080B483B02A
:1014AC0000AF78607B68084A82FB03129210DB174E
:1014BC00D31A064A1360064B00221A6000BF0C3781
:1014CC00BD4680BC704700BF676666661801002089
:1014DC001001002080B483B000AF78607B68084AAC
:1014EC0082FB03129210DB17D31A064A1360064BC9
:1014FC0000221A6000BF0C37BD4680BC704700BF8D
:10150C00676666660C010020FC00002080B483B086
:10151C0000AF78607B68084A82FB03129210DB17DD
:10152C00D31A064A1360064B00221A6000BF0C3710
:10153C00BD4680BC704700BF67666666140100201C
:10154C000801002080B483B000AF78607B68084A43
:10155C0082FB03129210DB17D31A064A1360064B58
:10156C0000221A6000BF0C37BD4680BC704700BF1C
:10157C0067666666040100200001002080B400AF9D
:10158C00214B1B68002B0BDD1F4B1B68013B1E4ABC
:10159C0013601D4B1B68002B02DC1C4B01221A60D4
:1015AC001B4B1B68002B0BDD194B1B68013B184AAE
:1015BC001360174B1B68002B02DC164B01221A60C0
:1015CC00154B1B68002B0BDD134B1B68013B124AA0
:1015DC001360114B1B68002B02DC104B01221A60AC
:1015EC000F4B1B68002B0BDD0D4B1B68013B0C4A92
:1015FC0013600B4B1B68002B02DC0A4B01221A6098
:10160C0000BFBD4680BC70471801002010010020AF
:10161C000C010020FC000020140100200801002017
:10162C00040100200001002080B485B000AF154BF0
:10163C009B69144A43F001039361124B9B6903F0BD
:10164C000103BB60BB680F4BDB690E4A43F0805350
:10165C00D3610C4BDB6903F080537B607B680A4BD6
:10166C005B68FB60FB6823F0E063FB60FB6843F0A6
:10167C008063FB60044AFB68536000BF1437BD46AF
:10168C0080BC7047001002400000014080B584B05F
:10169C0000AF78607B681B68B3F1804F13D10C4BA3
:1016AC00DB690B4A43F00103D361094BDB6903F09F
:1016BC000103FB60FB68002200211C2000F0A1F953
:1016CC001C2000F0BAF900BF1037BD4680BD00BF2A
:1016DC000010024080B400AFFEE780B400AFFEE71C
:1016EC0080B400AFFEE780B400AFFEE780B400AF7B
:1016FC00FEE780B400AF00BFBD4680BC704780B42D
:10170C0000AF00BFBD4680BC704780B400AF00BFC7
:10171C00BD4680BC704780B500AF00F07FF800BFBD
:10172C0080BD000080B500AF024800F0DBFF00BFB9
:10173C0080BD00BFB400002080B400AF00BFBD4628
:10174C0080BC7047FFF7F8FF0B480C490C4A00238C
:10175C0002E0D458C4500433C4188C42F9D3094A5B
:10176C00094C002301E013600432A242FBD301F0C8
:10177C0005FBFFF76FFD704700000020680000209C
:10178C00242E00086800002020010020FEE7000045
:10179C0080B500AF084B1B68074A43F01003136079
:1017AC00032000F023F90F2000F008F8FFF73CFFAE
:1017BC000023184680BD00BF0020024080B582B0D7
:1017CC0000AF7860124B1A68124B1B7819464FF415
:1017DC007A73B3FBF1F3B2FBF3F3184600F03BF969
:1017EC000346002B01D001230EE07B680F2B0AD897
:1017FC00002279684FF0FF3000F003F9064A7B684D
:10180C001360002300E0012318460837BD4680BD55
:10181C005C000020640000206000002080B400AF59
:10182C00054B1B781A46054B1B681344034A13607F
:10183C0000BFBD4680BC7047640000201C01002026
:10184C0080B400AF024B1B681846BD4680BC704785
:10185C001C01002080B485B000AF78607B6803F079
:10186C000703FB600C4BDB68BB60BA684FF6FF03E9
:10187C001340BB60FB681A02BB68134343F0BF63A1
:10188C0043F40033BB60044ABB68D36000BF143719
:10189C00BD4680BC704700BF00ED00E080B400AFD7
:1018AC00044BDB681B0A03F007031846BD4680BCDB
:1018BC00704700BF00ED00E080B483B000AF03467A
:1018CC00FB7197F90730002B0BDBFB7903F01F0240
:1018DC00064997F907305B09012000FA02F241F83A
:1018EC00232000BF0C37BD4680BC704700E100E0F0
:1018FC0080B483B000AF03463960FB7197F90730B1
:10190C00002B0ADB3B68DAB20C4997F9073012015D
:10191C00D2B20B4483F800230AE03B68DAB20849E0
:10192C00FB7903F00F03043B1201D2B20B441A767D
:10193C0000BF0C37BD4680BC704700BF00E100E023
:10194C0000ED00E080B489B000AFF860B9607A6057
:10195C00FB6803F00703FB61FB69C3F10703042B6E
:10196C0028BF0423BB61FB690433062B02D9FB6936
:10197C00033B00E000237B614FF0FF32BB6902FAAE
:10198C0003F3DA43BB681A407B699A404FF0FF318E
:10199C007B6901FA03F3D9437B680B401343184668
:1019AC002437BD4680BC704780B582B000AF7860EC
:1019BC007B68013BB3F1807F01D301230FE00A4A1E
:1019CC007B68013B53600F214FF0FF30FFF790FF16
:1019DC00054B00229A60044B07221A60002318461C
:1019EC000837BD4680BD00BF10E000E080B582B076
:1019FC0000AF78607868FFF72DFF00BF0837BD4651
:101A0C0080BD80B586B000AF0346B9607A60FB73C9
:101A1C0000237B61FFF742FF78617A68B9687869C7
:101A2C00FFF790FF024697F90F3011461846FFF763
:101A3C005FFF00BF1837BD4680BD80B582B000AFD8
:101A4C000346FB7197F907301846FFF735FF00BFC7
:101A5C000837BD4680BD80B582B000AF786078682D
:101A6C00FFF7A2FF034618460837BD4680BD0000AD
:101A7C0080B48BB000AF7860396000237B620023A8
:101A8C003B6248E101227B6A02FA03F3FB613B688B
:101A9C001B68FA691340BB61BA69FB699A4240F052
:101AAC0037813B685B68A34A93425ED0A14A93425C
:101ABC0075D8A14A934258D09F4A93426FD89F4AF7
:101ACC00934252D09D4A934269D89D4A93424CD03E
:101ADC009B4A934263D89B4A934246D0994A93427D
:101AEC005DD8122B2AD8122B59D801A252F823F008
:101AFC00771B0008511B0008631B0008A51B00087E
:101B0C00AB1B0008AB1B0008AB1B0008AB1B000891
:101B1C00AB1B0008AB1B0008AB1B0008AB1B000881
:101B2C00AB1B0008AB1B0008AB1B0008AB1B000871
:101B3C00AB1B0008591B00086D1B0008824A93421E
:101B4C0013D02CE03B68DB683B6229E03B68DB6828
:101B5C0004333B6224E03B68DB6808333B621FE0E4
:101B6C003B68DB680C333B621AE03B689B68002BDC
:101B7C0002D104233B6213E03B689B68012B05D127
:101B8C0008233B627B68FA691A6109E008233B620F
:101B9C007B68FA695A6103E000233B6200E000BFF6
:101BAC00BB69FF2B01D87B6801E07B6804337B6148
:101BBC00BB69FF2B02D87B6A9B0002E07B6A083B67
:101BCC009B003B617B691A680F213B6901FA03F3A7
:101BDC00DB431A40396A3B6901FA03F31A437B6908
:101BEC001A603B685B6803F08053002B00F0908018
:101BFC00564B9B69554A43F001039361534B9B69C8
:101C0C0003F00103BB60BB68514A7B6A9B0802333B
:101C1C0052F82330FB607B6A03F003039B000F2216
:101C2C0002FA03F3DB43FA681340FB607B68494A12
:101C3C0093420DD07B68484A934207D07B68474A51
:101C4C00934201D1022304E0032302E0012300E0CC
:101C5C0000237A6A02F0030292009340FA6813435D
:101C6C00FB603B497B6A9B080233FA6841F82320EE
:101C7C003B685B6803F48013002B06D0384B9A68E2
:101C8C003749BB6913438B6006E0354B9A68BB69D7
:101C9C00DB43334913408B603B685B6803F40013F0
:101CAC00002B06D02E4BDA682D49BB691343CB6051
:101CBC0006E02B4BDA68BB69DB4329491340CB6048
:101CCC003B685B6803F40033002B06D0244B5A6846
:101CDC002349BB6913434B6006E0214B5A68BB692F
:101CEC00DB431F4913404B603B685B6803F4803354
:101CFC00002B06D01A4B1A681949BB6913430B60A9
:101D0C0006E0174B1A68BB69DB43154913400B609F
:101D1C007B6A01337B623B681A687B6A22FA03F3A5
:101D2C00002B7FF4AFAE00BF00BF2C37BD4680BC8C
:101D3C00704700BF0000321000003110000022106C
:101D4C0000002110000012100000111000100240C1
:101D5C000000014000080140000C0140001001404F
:101D6C000004014080B485B000AF78600B467B80E6
:101D7C007B689A687B881340002B02D00123FB738D
:101D8C0001E00023FB73FB7B18461437BD4680BC77
:101D9C00704780B483B000AF78600B467B801346ED
:101DAC007B707B78002B03D07A887B681A6103E008
:101DBC007B881A047B681A6100BF0C37BD4680BC57
:101DCC00704780B485B000AF78600B467B807B6831
:101DDC00DB68FB607A88FB6813401A04FB68D94304
:101DEC007B880B401A437B681A6100BF1437BD46D1
:101DFC0080BC704780B586B000AF78607B68002BE4
:101E0C0001D101236CE27B681B6803F00103002BFA
:101E1C0000F08780924B5B6803F00C03042B0CD012
:101E2C008F4B5B6803F00C03082B12D18C4B5B6857
:101E3C0003F48033B3F5803F0BD1894B1B6803F45B
:101E4C000033002B6CD07B685B68002B68D10123BE
:101E5C0046E27B685B68B3F5803F06D1804B1B681C
:101E6C007F4A43F4803313602EE07B685B68002B61
:101E7C000CD17B4B1B687A4A23F480331360784B6C
:101E8C001B68774A23F4802313601DE07B685B6832
:101E9C00B3F5A02F0CD1724B1B68714A43F480230D
:101EAC0013606F4B1B686E4A43F4803313600BE076
:101EBC006B4B1B686A4A23F480331360684B1B68B6
:101ECC00674A23F4802313607B685B68002B13D074
:101EDC00FFF7B6FC386108E0FFF7B2FC02463B693D
:101EEC00D31A642B01D90323FAE15D4B1B6803F46D
:101EFC000033002BF0D014E0FFF7A2FC386108E0AF
:101F0C00FFF79EFC02463B69D31A642B01D90323CD
:101F1C00E6E1534B1B6803F40033002BF0D100E0D7
:101F2C0000BF7B681B6803F00203002B63D04C4B93
:101F3C005B6803F00C03002B0BD0494B5B6803F080
:101F4C000C03082B1CD1464B5B6803F48033002B2D
:101F5C0016D1434B1B6803F00203002B05D07B68A2
:101F6C001B69012B01D00123BAE13D4B1B6823F007
:101F7C00F8027B685B69DB00394913430B603AE07C
:101F8C007B681B69002B20D0364B01221A60FFF7AF
:101F9C0057FC386108E0FFF753FC02463B69D31A43
:101FAC00022B01D903239BE12D4B1B6803F0020389
:101FBC00002BF0D02A4B1B6823F0F8027B685B697E
:101FCC00DB00274913430B6015E0264B00221A60F7
:101FDC00FFF736FC386108E0FFF732FC02463B693C
:101FEC00D31A022B01D903237AE11D4B1B6803F092
:101FFC000203002BF0D17B681B6803F00803002B55
:10200C003AD07B689B69002B19D0174B01221A60C0
:10201C00FFF716FC386108E0FFF712FC02463B693B
:10202C00D31A022B01D903235AE10D4B5B6A03F03F
:10203C000203002BF0D0012000F09AFA1CE00A4BAE
:10204C0000221A60FFF7FCFB38610FE0FFF7F8FB8A
:10205C0002463B69D31A022B08D9032340E100BF87
:10206C000010024000004242800442429E4B5B6AD8
:10207C0003F00203002BE9D17B681B6803F0040317
:10208C00002B00F0A6800023FB75974BDB6903F057
:10209C008053002B0DD1944BDB69934A43F0805352
:1020AC00D361914BDB6903F08053BB60BB680123A8
:1020BC00FB758E4B1B6803F48073002B18D18B4B74
:1020CC001B688A4A43F480731360FFF7B9FB3861CD
:1020DC0008E0FFF7B5FB02463B69D31A642B01D924
:1020EC000323FDE0814B1B6803F48073002BF0D0BD
:1020FC007B68DB68012B06D17B4B1B6A7A4A43F069
:10210C00010313622DE07B68DB68002B0CD1764B4E
:10211C001B6A754A23F001031362734B1B6A724AE4
:10212C0023F0040313621CE07B68DB68052B0CD1E5
:10213C006D4B1B6A6C4A43F0040313626A4B1B6AB7
:10214C00694A43F0010313620BE0674B1B6A664A52
:10215C0023F001031362644B1B6A634A23F00403EC
:10216C0013627B68DB68002B15D0FFF769FB3861C5
:10217C000AE0FFF765FB02463B69D31A41F288324D
:10218C00934201D90323ABE0574B1B6A03F00203C4
:10219C00002BEED014E0FFF753FB38610AE0FFF799
:1021AC004FFB02463B69D31A41F28832934201D964
:1021BC00032395E04C4B1B6A03F00203002BEED17A
:1021CC00FB7D012B05D1484BDB69474A23F080533B
:1021DC00D3617B68DB69002B00F08180424B5B682C
:1021EC0003F00C03082B61D07B68DB69022B46D112
:1021FC003F4B00221A60FFF723FB386108E0FFF722
:10220C001FFB02463B69D31A022B01D9032367E05B
:10221C00354B1B6803F00073002BF0D17B681B6AF5
:10222C00B3F5803F08D1304B5B6823F400327B68F8
:10223C009B682D4913434B602B4B5B6823F4741242
:10224C007B68196A7B685B6A0B43274913434B60B5
:10225C00274B01221A60FFF7F3FA386108E0FFF709
:10226C00EFFA02463B69D31A022B01D9032337E05C
:10227C001D4B1B6803F00073002BF0D02FE01C4BA0
:10228C0000221A60FFF7DCFA386108E0FFF7D8FA91
:10229C0002463B69D31A022B01D9032320E0124BCF
:1022AC001B6803F00073002BF0D118E07B68DB692E
:1022BC00012B01D1012313E00B4B5B68FB60FB6826
:1022CC0003F480327B681B6A9A4206D1FB6803F4E4
:1022DC0070127B685B6A9A4201D0012300E00023F4
:1022EC0018461837BD4680BD0010024000700040F3
:1022FC006000424280B584B000AF786039607B6882
:10230C00002B01D10123D0E06A4B1B6803F00703BB
:10231C003A689A4210D9674B1B6823F0070265494B
:10232C003B6813430B60634B1B6803F007033A686D
:10233C009A4201D00123B8E07B681B6803F00203CA
:10234C00002B20D07B681B6803F00403002B05D006
:10235C00594B5B68584A43F4E06353607B681B68D5
:10236C0003F00803002B05D0534B5B68524A43F42F
:10237C0060535360504B5B6823F0F0027B689B68A2
:10238C004D4913434B607B681B6803F00103002B22
:10239C0040D07B685B68012B07D1474B1B6803F46B
:1023AC000033002B15D101237FE07B685B68022B87
:1023BC0007D1414B1B6803F00073002B09D101239B
:1023CC0073E03D4B1B6803F00203002B01D101238A
:1023DC006BE0394B5B6823F003027B685B68364922
:1023EC0013434B60FFF72CFAF8600AE0FFF728FA6A
:1023FC000246FB68D31A41F28832934201D9032377
:10240C0053E02D4B5B6803F00C027B685B689B0010
:10241C009A42EBD1274B1B6803F007033A689A42A8
:10242C0010D2244B1B6823F0070222493B6813434C
:10243C000B60204B1B6803F007033A689A4201D0EB
:10244C00012332E07B681B6803F00403002B08D0E7
:10245C00194B5B6823F4E0627B68DB681649134315
:10246C004B607B681B6803F00803002B09D0124BF0
:10247C005B6823F460527B681B69DB000E491343D5
:10248C004B6000F021F802460B4B5B681B0903F014
:10249C000F030A49CB5C22FA03F3094A1360094B78
:1024AC001B681846FFF78AF9002318461037BD46FB
:1024BC0080BD00BF0020024000100240F82D000833
:1024CC005C0000206000002080B487B000AF0023C7
:1024DC00FB600023BB6000237B6100237B60002337
:1024EC003B611E4B5B68FB60FB6803F00C03042B29
:1024FC0002D0082B03D027E0194B3B6127E0FB6887
:10250C009B0C03F00F03174AD35C7B60FB6803F44E
:10251C008033002B10D0114B5B685B0C03F0010374
:10252C00114AD35CBB607B680D4A02FB03F2BB68AB
:10253C00B2FBF3F37B6104E07B680C4A02FB03F310
:10254C007B617B693B6102E0054B3B6100BF3B69F2
:10255C0018461C37BD4680BC704700BF00100240B7
:10256C0000127A00082E0008182E000800093D0001
:10257C0080B485B000AF78600A4B1B680A4AA2FB96
:10258C0003235B0A7A6802FB03F3FB6000BFFB6862
:10259C005A1EFA60002BF9D100BF00BF1437BD469C
:1025AC0080BC70475C000020D34D621080B582B0B7
:1025BC0000AF78607B68002B01D1012341E07B6880
:1025CC0093F83D30DBB2002B06D17B68002283F8F8
:1025DC003C207868FFF75AF87B68022283F83D208C
:1025EC007B681A687B6804331946104600F06EFA53
:1025FC007B68012283F846207B68012283F83E2009
:10260C007B68012283F83F207B68012283F84020FD
:10261C007B68012283F841207B68012283F84220E9
:10262C007B68012283F843207B68012283F84420D5
:10263C007B68012283F845207B68012283F83D20CA
:10264C00002318460837BD4680BD000080B485B015
:10265C0000AF78607B6893F83D30DBB2012B01D082
:10266C00012335E07B68022283F83D207B681B68E0
:10267C00DA687B681B6842F00102DA607B681B68D1
:10268C00164A934209D07B681B68B3F1804F04D083
:10269C007B681B68124A934211D17B681B689B684C
:1026AC0003F00703FB60FB68062B10D07B681B68EC
:1026BC001A687B681B6842F001021A6007E07B68AD
:1026CC001B681A687B681B6842F001021A600023C1
:1026DC0018461437BD4680BC704700BF002C014023
:1026EC000004004080B582B000AF78607B681B6846
:1026FC001B6903F00203022B22D17B681B68DB6889
:10270C0003F00203022B1BD17B681B686FF00202E3
:10271C001A617B6801221A777B681B689B6903F03E
:10272C000303002B03D0786800F0B4F905E0786857
:10273C0000F0A7F9786800F0B6F97B6800221A77E8
:10274C007B681B681B6903F00403042B22D17B6894
:10275C001B68DB6803F00403042B1BD17B681B682C
:10276C006FF004021A617B6802221A777B681B687F
:10277C009B6903F44073002B03D0786800F08AF94E
:10278C0005E0786800F07DF9786800F08CF97B68DA
:10279C0000221A777B681B681B6903F00803082B5F
:1027AC0022D17B681B68DB6803F00803082B1BD164
:1027BC007B681B686FF008021A617B6804221A7729
:1027CC007B681B68DB6903F00303002B03D078687C
:1027DC0000F060F905E0786800F053F9786800F0D3
:1027EC0062F97B6800221A777B681B681B6903F00F
:1027FC001003102B22D17B681B68DB6803F01003DD
:10280C00102B1BD17B681B686FF010021A617B6860
:10281C0008221A777B681B68DB6903F44073002B72
:10282C0003D0786800F036F905E0786800F029F9F3
:10283C00786800F038F97B6800221A777B681B688F
:10284C001B6903F00103012B0ED17B681B68DB684D
:10285C0003F00103012B07D17B681B686FF00102A9
:10286C001A617868FEF708FE7B681B681B6903F029
:10287C008003802B0ED17B681B68DB6803F0800320
:10288C00802B07D17B681B686FF080021A61786817
:10289C0000F06BFA7B681B681B6903F04003402B4C
:1028AC000ED17B681B68DB6803F04003402B07D11B
:1028BC007B681B686FF040021A61786800F0FCF8C6
:1028CC007B681B681B6903F02003202B0ED17B68EF
:1028DC001B68DB6803F02003202B07D17B681B6887
:1028EC006FF020021A61786800F036FA00BF0837E2
:1028FC00BD4680BD80B584B000AF786039600023E0
:10290C00FB737B6893F83C30012B01D10223B4E0BC
:10291C007B68012283F83C207B68022283F83D20EF
:10292C007B681B689B68BB60BB6823F07703BB604C
:10293C00BB6823F47F43BB607B681B68BA689A60F2
:10294C003B681B68B3F5005F3ED0B3F5005F00F247
:10295C008780B3F5805F00F08680B3F5805F7FD809
:10296C00702B1AD0702B7BD8602B50D0602B77D863
:10297C00502B3CD0502B73D8402B58D0402B6FD8B9
:10298C00302B64D0302B6BD8202B60D0202B67D809
:10299C00002B5CD0102B5AD062E07B6818683B6827
:1029AC0099683B685A683B68DB6800F05EF97B68A5
:1029BC001B689B68BB60BB6843F07703BB607B689C
:1029CC001B68BA689A604FE07B6818683B68996826
:1029DC003B685A683B68DB6800F047F97B681B680A
:1029EC009A687B681B6842F480429A603CE07B6882
:1029FC0018683B6859683B68DB681A4600F0BEF8FB
:102A0C007B681B685021184600F015F92CE07B6898
:102A1C0018683B6859683B68DB681A4600F0DCF8BC
:102A2C007B681B686021184600F005F91CE07B6888
:102A3C0018683B6859683B68DB681A4600F09EF8DA
:102A4C007B681B684021184600F0F5F80CE07B68A9
:102A5C001A683B681B681946104600F0ECF803E056
:102A6C000123FB7300E000BF7B68012283F83D204B
:102A7C007B68002283F83C20FB7B18461037BD4650
:102A8C0080BD80B483B000AF786000BF0C37BD460A
:102A9C0080BC704780B483B000AF786000BF0C3747
:102AAC00BD4680BC704780B483B000AF786000BF77
:102ABC000C37BD4680BC704780B483B000AF7860E3
:102ACC0000BF0C37BD4680BC7047000080B485B099
:102ADC0000AF786039607B681B68FB607B68254AB7
:102AEC00934207D07B68B3F1804F03D07B68224AB6
:102AFC00934208D1FB6823F07003FB603B685B6872
:102B0C00FA681343FB607B681A4A934207D07B68D0
:102B1C00B3F1804F03D07B68174A934208D1FB680E
:102B2C0023F44073FB603B68DB68FA681343FB607B
:102B3C00FB6823F080023B685B691343FB607B6896
:102B4C00FA681A603B689A687B68DA623B681A68B4
:102B5C007B689A627B68074A934203D13B681A6987
:102B6C007B681A637B6801225A6100BF1437BD462B
:102B7C0080BC7047002C01400004004080B487B03A
:102B8C0000AFF860B9607A60FB681B6A7B61FB6818
:102B9C001B6A23F00102FB681A62FB689B693B61AC
:102BAC003B6923F0F0033B617B681B013A691343DB
:102BBC003B617B6923F00A037B617A69BB68134331
:102BCC007B61FB683A699A61FB687A691A6200BF9B
:102BDC001C37BD4680BC704780B487B000AFF8602E
:102BEC00B9607A60FB681B6A7B61FB681B6A23F027
:102BFC001002FB681A62FB689B693B613B6923F41A
:102C0C0070433B617B681B033A6913433B617B69EF
:102C1C0023F0A0037B61BB681B017A6913437B61C2
:102C2C00FB683A699A61FB687A691A6200BF1C37C3
:102C3C00BD4680BC704780B485B000AF7860396009
:102C4C007B689B68FB60FB6823F07003FB603A6851
:102C5C00FB68134343F00703FB607B68FA689A60D8
:102C6C0000BF1437BD4680BC704780B487B000AF3E
:102C7C00F860B9607A603B60FB689B687B617B693C
:102C8C0023F47F437B613B681A027B681A43BB6861
:102C9C0013437A6913437B61FB687A699A6000BFBE
:102CAC001C37BD4680BC704780B485B000AF7860DF
:102CBC0039607B6893F83C30012B01D1022341E051
:102CCC007B68012283F83C207B68022283F83D203C
:102CDC007B681B685B68FB607B681B689B68BB60E0
:102CEC00FB6823F07003FB603B681B68FA681343B6
:102CFC00FB607B681B68FA685A607B681B68144A27
:102D0C00934209D07B681B68B3F1804F04D07B6879
:102D1C001B68104A93420CD1BB6823F08003BB6044
:102D2C003B685B68BA681343BB607B681B68BA6816
:102D3C009A607B68012283F83D207B68002283F82F
:102D4C003C20002318461437BD4680BC704700BF9A
:102D5C00002C01400004004080B483B000AF7860C8
:102D6C0000BF0C37BD4680BC704780B483B000AF49
:102D7C00786000BF0C37BD4680BC704770B500262C
:102D8C000C4D0D4C641BA410A64209D100F022F886
:102D9C0000260A4D0A4C641BA410A64205D170BD36
:102DAC0055F8043B98470136EEE755F8043B984735
:102DBC000136F2E71C2E00081C2E00081C2E000801
:102DCC00202E000803460244934200D1704703F8BA
:102DDC00011BF9E7F8B500BFF8BC08BC9E4670476C
:0C2DEC00F8B500BFF8BC08BC9E4670475C
:102DF80000000000000000000102030406070809A3
:102E080002030405060708090A0B0C0D0E0F101023
:042E180001020000B3
:042E1C003101000878
:042E20000D01000898
:102E2400010000000100000001000000010000009A
:102E3400010000000100000001000000010000008A
:102E4400010000000100000001000000010000007A
:102E5400C8000000C8000000C800000000100140C5
:102E640000100140001001400020004000800000DC
:102E74000500000002000000030000000024F4002C
:082E8400100000000100000035
:040000050800175187
:00000001FF
